{
  "_format": "hh-sol-artifact-1",
  "contractName": "GreenCommuteToken",
  "sourceName": "contracts/GreenCommuteToken.sol",
  "abi": [
    {
      "inputs": [
        {
          "internalType": "address",
          "name": "initialOracle",
          "type": "address"
        }
      ],
      "stateMutability": "nonpayable",
      "type": "constructor"
    },
    {
      "inputs": [],
      "name": "ECDSAInvalidSignature",
      "type": "error"
    },
    {
      "inputs": [
        {
          "internalType": "uint256",
          "name": "length",
          "type": "uint256"
        }
      ],
      "name": "ECDSAInvalidSignatureLength",
      "type": "error"
    },
    {
      "inputs": [
        {
          "internalType": "bytes32",
          "name": "s",
          "type": "bytes32"
        }
      ],
      "name": "ECDSAInvalidSignatureS",
      "type": "error"
    },
    {
      "inputs": [
        {
          "internalType": "address",
          "name": "spender",
          "type": "address"
        },
        {
          "internalType": "uint256",
          "name": "allowance",
          "type": "uint256"
        },
        {
          "internalType": "uint256",
          "name": "needed",
          "type": "uint256"
        }
      ],
      "name": "ERC20InsufficientAllowance",
      "type": "error"
    },
    {
      "inputs": [
        {
          "internalType": "address",
          "name": "sender",
          "type": "address"
        },
        {
          "internalType": "uint256",
          "name": "balance",
          "type": "uint256"
        },
        {
          "internalType": "uint256",
          "name": "needed",
          "type": "uint256"
        }
      ],
      "name": "ERC20InsufficientBalance",
      "type": "error"
    },
    {
      "inputs": [
        {
          "internalType": "address",
          "name": "approver",
          "type": "address"
        }
      ],
      "name": "ERC20InvalidApprover",
      "type": "error"
    },
    {
      "inputs": [
        {
          "internalType": "address",
          "name": "receiver",
          "type": "address"
        }
      ],
      "name": "ERC20InvalidReceiver",
      "type": "error"
    },
    {
      "inputs": [
        {
          "internalType": "address",
          "name": "sender",
          "type": "address"
        }
      ],
      "name": "ERC20InvalidSender",
      "type": "error"
    },
    {
      "inputs": [
        {
          "internalType": "address",
          "name": "spender",
          "type": "address"
        }
      ],
      "name": "ERC20InvalidSpender",
      "type": "error"
    },
    {
      "inputs": [],
      "name": "InvalidCaller",
      "type": "error"
    },
    {
      "inputs": [],
      "name": "InvalidOracle",
      "type": "error"
    },
    {
      "inputs": [],
      "name": "InvalidShortString",
      "type": "error"
    },
    {
      "inputs": [],
      "name": "InvalidSignature",
      "type": "error"
    },
    {
      "inputs": [],
      "name": "NonceAlreadyUsed",
      "type": "error"
    },
    {
      "inputs": [
        {
          "internalType": "address",
          "name": "owner",
          "type": "address"
        }
      ],
      "name": "OwnableInvalidOwner",
      "type": "error"
    },
    {
      "inputs": [
        {
          "internalType": "address",
          "name": "account",
          "type": "address"
        }
      ],
      "name": "OwnableUnauthorizedAccount",
      "type": "error"
    },
    {
      "inputs": [],
      "name": "SignatureExpired",
      "type": "error"
    },
    {
      "inputs": [
        {
          "internalType": "string",
          "name": "str",
          "type": "string"
        }
      ],
      "name": "StringTooLong",
      "type": "error"
    },
    {
      "anonymous": false,
      "inputs": [
        {
          "indexed": true,
          "internalType": "address",
          "name": "owner",
          "type": "address"
        },
        {
          "indexed": true,
          "internalType": "address",
          "name": "spender",
          "type": "address"
        },
        {
          "indexed": false,
          "internalType": "uint256",
          "name": "value",
          "type": "uint256"
        }
      ],
      "name": "Approval",
      "type": "event"
    },
    {
      "anonymous": false,
      "inputs": [],
      "name": "EIP712DomainChanged",
      "type": "event"
    },
    {
      "anonymous": false,
      "inputs": [
        {
          "indexed": true,
          "internalType": "address",
          "name": "previousOracle",
          "type": "address"
        },
        {
          "indexed": true,
          "internalType": "address",
          "name": "newOracle",
          "type": "address"
        }
      ],
      "name": "OracleUpdated",
      "type": "event"
    },
    {
      "anonymous": false,
      "inputs": [
        {
          "indexed": true,
          "internalType": "address",
          "name": "previousOwner",
          "type": "address"
        },
        {
          "indexed": true,
          "internalType": "address",
          "name": "newOwner",
          "type": "address"
        }
      ],
      "name": "OwnershipTransferred",
      "type": "event"
    },
    {
      "anonymous": false,
      "inputs": [
        {
          "indexed": true,
          "internalType": "address",
          "name": "user",
          "type": "address"
        },
        {
          "indexed": false,
          "internalType": "uint256",
          "name": "amount",
          "type": "uint256"
        },
        {
          "indexed": false,
          "internalType": "uint256",
          "name": "nonce",
          "type": "uint256"
        }
      ],
      "name": "RewardClaimed",
      "type": "event"
    },
    {
      "anonymous": false,
      "inputs": [
        {
          "indexed": true,
          "internalType": "address",
          "name": "from",
          "type": "address"
        },
        {
          "indexed": true,
          "internalType": "address",
          "name": "to",
          "type": "address"
        },
        {
          "indexed": false,
          "internalType": "uint256",
          "name": "value",
          "type": "uint256"
        }
      ],
      "name": "Transfer",
      "type": "event"
    },
    {
      "inputs": [],
      "name": "CLAIM_TYPEHASH",
      "outputs": [
        {
          "internalType": "bytes32",
          "name": "",
          "type": "bytes32"
        }
      ],
      "stateMutability": "view",
      "type": "function"
    },
    {
      "inputs": [],
      "name": "SIGNATURE_VERSION",
      "outputs": [
        {
          "internalType": "string",
          "name": "",
          "type": "string"
        }
      ],
      "stateMutability": "view",
      "type": "function"
    },
    {
      "inputs": [],
      "name": "SIGNING_DOMAIN",
      "outputs": [
        {
          "internalType": "string",
          "name": "",
          "type": "string"
        }
      ],
      "stateMutability": "view",
      "type": "function"
    },
    {
      "inputs": [
        {
          "internalType": "address",
          "name": "owner",
          "type": "address"
        },
        {
          "internalType": "address",
          "name": "spender",
          "type": "address"
        }
      ],
      "name": "allowance",
      "outputs": [
        {
          "internalType": "uint256",
          "name": "",
          "type": "uint256"
        }
      ],
      "stateMutability": "view",
      "type": "function"
    },
    {
      "inputs": [
        {
          "internalType": "address",
          "name": "spender",
          "type": "address"
        },
        {
          "internalType": "uint256",
          "name": "value",
          "type": "uint256"
        }
      ],
      "name": "approve",
      "outputs": [
        {
          "internalType": "bool",
          "name": "",
          "type": "bool"
        }
      ],
      "stateMutability": "nonpayable",
      "type": "function"
    },
    {
      "inputs": [
        {
          "internalType": "address",
          "name": "account",
          "type": "address"
        }
      ],
      "name": "balanceOf",
      "outputs": [
        {
          "internalType": "uint256",
          "name": "",
          "type": "uint256"
        }
      ],
      "stateMutability": "view",
      "type": "function"
    },
    {
      "inputs": [
        {
          "internalType": "address",
          "name": "user",
          "type": "address"
        },
        {
          "internalType": "uint256",
          "name": "amount",
          "type": "uint256"
        },
        {
          "internalType": "uint256",
          "name": "nonce",
          "type": "uint256"
        },
        {
          "internalType": "uint256",
          "name": "expiry",
          "type": "uint256"
        },
        {
          "internalType": "bytes",
          "name": "signature",
          "type": "bytes"
        }
      ],
      "name": "claimReward",
      "outputs": [
        {
          "internalType": "bool",
          "name": "",
          "type": "bool"
        }
      ],
      "stateMutability": "nonpayable",
      "type": "function"
    },
    {
      "inputs": [],
      "name": "decimals",
      "outputs": [
        {
          "internalType": "uint8",
          "name": "",
          "type": "uint8"
        }
      ],
      "stateMutability": "view",
      "type": "function"
    },
    {
      "inputs": [],
      "name": "eip712Domain",
      "outputs": [
        {
          "internalType": "bytes1",
          "name": "fields",
          "type": "bytes1"
        },
        {
          "internalType": "string",
          "name": "name",
          "type": "string"
        },
        {
          "internalType": "string",
          "name": "version",
          "type": "string"
        },
        {
          "internalType": "uint256",
          "name": "chainId",
          "type": "uint256"
        },
        {
          "internalType": "address",
          "name": "verifyingContract",
          "type": "address"
        },
        {
          "internalType": "bytes32",
          "name": "salt",
          "type": "bytes32"
        },
        {
          "internalType": "uint256[]",
          "name": "extensions",
          "type": "uint256[]"
        }
      ],
      "stateMutability": "view",
      "type": "function"
    },
    {
      "inputs": [],
      "name": "name",
      "outputs": [
        {
          "internalType": "string",
          "name": "",
          "type": "string"
        }
      ],
      "stateMutability": "view",
      "type": "function"
    },
    {
      "inputs": [],
      "name": "oracle",
      "outputs": [
        {
          "internalType": "address",
          "name": "",
          "type": "address"
        }
      ],
      "stateMutability": "view",
      "type": "function"
    },
    {
      "inputs": [],
      "name": "owner",
      "outputs": [
        {
          "internalType": "address",
          "name": "",
          "type": "address"
        }
      ],
      "stateMutability": "view",
      "type": "function"
    },
    {
      "inputs": [],
      "name": "renounceOwnership",
      "outputs": [],
      "stateMutability": "nonpayable",
      "type": "function"
    },
    {
      "inputs": [
        {
          "internalType": "address",
          "name": "newOracle",
          "type": "address"
        }
      ],
      "name": "setOracle",
      "outputs": [],
      "stateMutability": "nonpayable",
      "type": "function"
    },
    {
      "inputs": [],
      "name": "symbol",
      "outputs": [
        {
          "internalType": "string",
          "name": "",
          "type": "string"
        }
      ],
      "stateMutability": "view",
      "type": "function"
    },
    {
      "inputs": [],
      "name": "totalSupply",
      "outputs": [
        {
          "internalType": "uint256",
          "name": "",
          "type": "uint256"
        }
      ],
      "stateMutability": "view",
      "type": "function"
    },
    {
      "inputs": [
        {
          "internalType": "address",
          "name": "to",
          "type": "address"
        },
        {
          "internalType": "uint256",
          "name": "value",
          "type": "uint256"
        }
      ],
      "name": "transfer",
      "outputs": [
        {
          "internalType": "bool",
          "name": "",
          "type": "bool"
        }
      ],
      "stateMutability": "nonpayable",
      "type": "function"
    },
    {
      "inputs": [
        {
          "internalType": "address",
          "name": "from",
          "type": "address"
        },
        {
          "internalType": "address",
          "name": "to",
          "type": "address"
        },
        {
          "internalType": "uint256",
          "name": "value",
          "type": "uint256"
        }
      ],
      "name": "transferFrom",
      "outputs": [
        {
          "internalType": "bool",
          "name": "",
          "type": "bool"
        }
      ],
      "stateMutability": "nonpayable",
      "type": "function"
    },
    {
      "inputs": [
        {
          "internalType": "address",
          "name": "newOwner",
          "type": "address"
        }
      ],
      "name": "transferOwnership",
      "outputs": [],
      "stateMutability": "nonpayable",
      "type": "function"
    },
    {
      "inputs": [
        {
          "internalType": "address",
          "name": "",
          "type": "address"
        },
        {
          "internalType": "uint256",
          "name": "",
          "type": "uint256"
        }
      ],
      "name": "usedNonces",
      "outputs": [
        {
          "internalType": "bool",
          "name": "",
          "type": "bool"
        }
      ],
      "stateMutability": "view",
      "type": "function"
    },
    {
      "inputs": [
        {
          "internalType": "address",
          "name": "user",
          "type": "address"
        },
        {
          "internalType": "uint256",
          "name": "amount",
          "type": "uint256"
        },
        {
          "internalType": "uint256",
          "name": "nonce",
          "type": "uint256"
        },
        {
          "internalType": "uint256",
          "name": "expiry",
          "type": "uint256"
        },
        {
          "internalType": "bytes",
          "name": "signature",
          "type": "bytes"
        }
      ],
      "name": "verifyClaimSignature",
      "outputs": [
        {
          "internalType": "bool",
          "name": "",
          "type": "bool"
        }
      ],
      "stateMutability": "view",
      "type": "function"
    }
  ],
  "bytecode": "0x6101606040523480156200001257600080fd5b5060405162001963380380620019638339810160408190526200003591620002fc565b6040518060400160405280601181526020017023b932b2b721b7b6b6baba32aa37b5b2b760791b815250604051806040016040528060018152602001603160f81b815250336040518060400160405280601381526020017f477265656e20436f6d6d75746520546f6b656e000000000000000000000000008152506040518060400160405280600381526020016211d0d560ea1b8152508160039081620000dd9190620003d5565b506004620000ec8282620003d5565b5050506001600160a01b0381166200011f57604051631e4fbdf760e01b8152600060048201526024015b60405180910390fd5b6200012a816200022e565b506200013882600662000280565b610120526200014981600762000280565b61014052815160208084019190912060e052815190820120610100524660a052620001d760e05161010051604080517f8b73c3c69bb8fe3d512ecc4cf759cc79239f7b179b0ffacaa9a75d522b39400f60208201529081019290925260608201524660808201523060a082015260009060c00160405160208183030381529060405280519060200120905090565b60805250503060c0526001600160a01b0381166200020857604051639589a27d60e01b815260040160405180910390fd5b600880546001600160a01b0319166001600160a01b039290921691909117905562000517565b600580546001600160a01b038381166001600160a01b0319831681179093556040519116919082907f8be0079c531659141344cd1fd0a4f28419497f9722a3daafe3b4186f6b6457e090600090a35050565b6000602083511015620002a0576200029883620002b9565b9050620002b3565b81620002ad8482620003d5565b5060ff90505b92915050565b600080829050601f81511115620002e7578260405163305a27a960e01b8152600401620001169190620004a1565b8051620002f482620004f2565b179392505050565b6000602082840312156200030f57600080fd5b81516001600160a01b03811681146200032757600080fd5b9392505050565b634e487b7160e01b600052604160045260246000fd5b600181811c908216806200035957607f821691505b6020821081036200037a57634e487b7160e01b600052602260045260246000fd5b50919050565b601f821115620003d0576000816000526020600020601f850160051c81016020861015620003ab5750805b601f850160051c820191505b81811015620003cc57828155600101620003b7565b5050505b505050565b81516001600160401b03811115620003f157620003f16200032e565b620004098162000402845462000344565b8462000380565b602080601f831160018114620004415760008415620004285750858301515b600019600386901b1c1916600185901b178555620003cc565b600085815260208120601f198616915b82811015620004725788860151825594840194600190910190840162000451565b5085821015620004915787850151600019600388901b60f8161c191681555b5050505050600190811b01905550565b60006020808352835180602085015260005b81811015620004d157858101830151858201604001528201620004b3565b506000604082860101526040601f19601f8301168501019250505092915050565b805160208083015191908110156200037a5760001960209190910360031b1b16919050565b60805160a05160c05160e0516101005161012051610140516113f1620005726000396000610a1a015260006109e801526000610e5501526000610e2d01526000610d8801526000610db201526000610ddc01526113f16000f3fe608060405234801561001057600080fd5b50600436106101375760003560e01c80637dc0d1d0116100b8578063a41572961161007c578063a4157296146102be578063a9059cbb146102de578063d605e5d4146102f1578063dd62ed3e14610304578063e3faad941461033d578063f2fde38b1461036d57600080fd5b80637dc0d1d01461024c57806384b0196e146102775780638da5cb5b146102925780638e382643146102a357806395d89b41146102b657600080fd5b80636a8a6894116100ff5780636a8a6894146101b15780636b0509b1146101df57806370a0823114610206578063715018a61461022f5780637adbf9731461023957600080fd5b806306fdde031461013c578063095ea7b31461015a57806318160ddd1461017d57806323b872dd1461018f578063313ce567146101a2575b600080fd5b610144610380565b6040516101519190611128565b60405180910390f35b61016d61016836600461115e565b610412565b6040519015158152602001610151565b6002545b604051908152602001610151565b61016d61019d366004611188565b61042c565b60405160128152602001610151565b61016d6101bf36600461115e565b600960209081526000928352604080842090915290825290205460ff1681565b6101817fb71796e175f99a2c7103f81736cbd3999df3e6e3839c11b94f0cf590501686f881565b6101816102143660046111c4565b6001600160a01b031660009081526020819052604090205490565b610237610450565b005b6102376102473660046111c4565b610464565b60085461025f906001600160a01b031681565b6040516001600160a01b039091168152602001610151565b61027f6104e5565b60405161015197969594939291906111df565b6005546001600160a01b031661025f565b61016d6102b1366004611278565b61052b565b610144610609565b610144604051806040016040528060018152602001603160f81b81525081565b61016d6102ec36600461115e565b610618565b61016d6102ff366004611278565b610626565b610181610312366004611317565b6001600160a01b03918216600090815260016020908152604080832093909416825291909152205490565b6101446040518060400160405280601181526020017023b932b2b721b7b6b6baba32aa37b5b2b760791b81525081565b61023761037b3660046111c4565b610830565b60606003805461038f9061134a565b80601f01602080910402602001604051908101604052809291908181526020018280546103bb9061134a565b80156104085780601f106103dd57610100808354040283529160200191610408565b820191906000526020600020905b8154815290600101906020018083116103eb57829003601f168201915b5050505050905090565b600033610420818585610873565b60019150505b92915050565b60003361043a858285610885565b610445858585610903565b506001949350505050565b610458610962565b610462600061098f565b565b61046c610962565b6001600160a01b03811661049357604051639589a27d60e01b815260040160405180910390fd5b600880546001600160a01b038381166001600160a01b0319831681179093556040519116919082907f078c3b417dadf69374a59793b829c52001247130433427049317bde56607b1b790600090a35050565b6000606080600080600060606104f96109e1565b610501610a13565b60408051600080825260208201909252600f60f81b9b939a50919850469750309650945092509050565b604080517fb71796e175f99a2c7103f81736cbd3999df3e6e3839c11b94f0cf590501686f860208201526001600160a01b03881691810191909152606081018690526080810185905260a08101849052600090819060c00160405160208183030381529060405280519060200120905060006105a682610a40565b905060006105ea8287878080601f016020809104026020016040519081016040528093929190818152602001838380828437600092019190915250610a6d92505050565b6008546001600160a01b039081169116149a9950505050505050505050565b60606004805461038f9061134a565b600033610420818585610903565b6000336001600160a01b03881614610651576040516348f5c3ed60e01b815260040160405180910390fd5b8342111561067257604051630819bdcd60e01b815260040160405180910390fd5b6001600160a01b038716600090815260096020908152604080832088845290915290205460ff16156106b657604051623f613760e71b815260040160405180910390fd5b604080517fb71796e175f99a2c7103f81736cbd3999df3e6e3839c11b94f0cf590501686f860208201526001600160a01b03891691810191909152606081018790526080810186905260a0810185905260009060c001604051602081830303815290604052805190602001209050600061072f82610a40565b905060006107738287878080601f016020809104026020016040519081016040528093929190818152602001838380828437600092019190915250610a6d92505050565b6008549091506001600160a01b038083169116146107a457604051638baa579f60e01b815260040160405180910390fd5b6001600160a01b038a1660009081526009602090815260408083208b84529091529020805460ff191660011790556107dc8a8a610a97565b604080518a8152602081018a90526001600160a01b038c16917ff01da32686223933d8a18a391060918c7f11a3648639edd87ae013e2e2731743910160405180910390a25060019998505050505050505050565b610838610962565b6001600160a01b03811661086757604051631e4fbdf760e01b8152600060048201526024015b60405180910390fd5b6108708161098f565b50565b6108808383836001610ad1565b505050565b6001600160a01b0383811660009081526001602090815260408083209386168352929052205460001981146108fd57818110156108ee57604051637dc7a0d960e11b81526001600160a01b0384166004820152602481018290526044810183905260640161085e565b6108fd84848484036000610ad1565b50505050565b6001600160a01b03831661092d57604051634b637e8f60e11b81526000600482015260240161085e565b6001600160a01b0382166109575760405163ec442f0560e01b81526000600482015260240161085e565b610880838383610ba6565b6005546001600160a01b031633146104625760405163118cdaa760e01b815233600482015260240161085e565b600580546001600160a01b038381166001600160a01b0319831681179093556040519116919082907f8be0079c531659141344cd1fd0a4f28419497f9722a3daafe3b4186f6b6457e090600090a35050565b6060610a0e7f00000000000000000000000000000000000000000000000000000000000000006006610cd0565b905090565b6060610a0e7f00000000000000000000000000000000000000000000000000000000000000006007610cd0565b6000610426610a4d610d7b565b8360405161190160f01b8152600281019290925260228201526042902090565b600080600080610a7d8686610ea6565b925092509250610a8d8282610ef3565b5090949350505050565b6001600160a01b038216610ac15760405163ec442f0560e01b81526000600482015260240161085e565b610acd60008383610ba6565b5050565b6001600160a01b038416610afb5760405163e602df0560e01b81526000600482015260240161085e565b6001600160a01b038316610b2557604051634a1406b160e11b81526000600482015260240161085e565b6001600160a01b03808516600090815260016020908152604080832093871683529290522082905580156108fd57826001600160a01b0316846001600160a01b03167f8c5be1e5ebec7d5bd14f71427d1e84f3dd0314c0f7b2291e5b200ac8c7c3b92584604051610b9891815260200190565b60405180910390a350505050565b6001600160a01b038316610bd1578060026000828254610bc69190611384565b90915550610c439050565b6001600160a01b03831660009081526020819052604090205481811015610c245760405163391434e360e21b81526001600160a01b0385166004820152602481018290526044810183905260640161085e565b6001600160a01b03841660009081526020819052604090209082900390555b6001600160a01b038216610c5f57600280548290039055610c7e565b6001600160a01b03821660009081526020819052604090208054820190555b816001600160a01b0316836001600160a01b03167fddf252ad1be2c89b69c2b068fc378daa952ba7f163c4a11628f55a4df523b3ef83604051610cc391815260200190565b60405180910390a3505050565b606060ff8314610cea57610ce383610fac565b9050610426565b818054610cf69061134a565b80601f0160208091040260200160405190810160405280929190818152602001828054610d229061134a565b8015610d6f5780601f10610d4457610100808354040283529160200191610d6f565b820191906000526020600020905b815481529060010190602001808311610d5257829003601f168201915b50505050509050610426565b6000306001600160a01b037f000000000000000000000000000000000000000000000000000000000000000016148015610dd457507f000000000000000000000000000000000000000000000000000000000000000046145b15610dfe57507f000000000000000000000000000000000000000000000000000000000000000090565b610a0e604080517f8b73c3c69bb8fe3d512ecc4cf759cc79239f7b179b0ffacaa9a75d522b39400f60208201527f0000000000000000000000000000000000000000000000000000000000000000918101919091527f000000000000000000000000000000000000000000000000000000000000000060608201524660808201523060a082015260009060c00160405160208183030381529060405280519060200120905090565b60008060008351604103610ee05760208401516040850151606086015160001a610ed288828585610feb565b955095509550505050610eec565b50508151600091506002905b9250925092565b6000826003811115610f0757610f076113a5565b03610f10575050565b6001826003811115610f2457610f246113a5565b03610f425760405163f645eedf60e01b815260040160405180910390fd5b6002826003811115610f5657610f566113a5565b03610f775760405163fce698f760e01b81526004810182905260240161085e565b6003826003811115610f8b57610f8b6113a5565b03610acd576040516335e2f38360e21b81526004810182905260240161085e565b60606000610fb9836110ba565b604080516020808252818301909252919250600091906020820181803683375050509182525060208101929092525090565b600080807f7fffffffffffffffffffffffffffffff5d576e7357a4501ddfe92f46681b20a084111561102657506000915060039050826110b0565b604080516000808252602082018084528a905260ff891692820192909252606081018790526080810186905260019060a0016020604051602081039080840390855afa15801561107a573d6000803e3d6000fd5b5050604051601f1901519150506001600160a01b0381166110a6575060009250600191508290506110b0565b9250600091508190505b9450945094915050565b600060ff8216601f81111561042657604051632cd44ac360e21b815260040160405180910390fd5b6000815180845260005b81811015611108576020818501810151868301820152016110ec565b506000602082860101526020601f19601f83011685010191505092915050565b60208152600061113b60208301846110e2565b9392505050565b80356001600160a01b038116811461115957600080fd5b919050565b6000806040838503121561117157600080fd5b61117a83611142565b946020939093013593505050565b60008060006060848603121561119d57600080fd5b6111a684611142565b92506111b460208501611142565b9150604084013590509250925092565b6000602082840312156111d657600080fd5b61113b82611142565b60ff60f81b881681526000602060e0602084015261120060e084018a6110e2565b8381036040850152611212818a6110e2565b606085018990526001600160a01b038816608086015260a0850187905284810360c08601528551808252602080880193509091019060005b818110156112665783518352928401929184019160010161124a565b50909c9b505050505050505050505050565b60008060008060008060a0878903121561129157600080fd5b61129a87611142565b9550602087013594506040870135935060608701359250608087013567ffffffffffffffff808211156112cc57600080fd5b818901915089601f8301126112e057600080fd5b8135818111156112ef57600080fd5b8a602082850101111561130157600080fd5b6020830194508093505050509295509295509295565b6000806040838503121561132a57600080fd5b61133383611142565b915061134160208401611142565b90509250929050565b600181811c9082168061135e57607f821691505b60208210810361137e57634e487b7160e01b600052602260045260246000fd5b50919050565b8082018082111561042657634e487b7160e01b600052601160045260246000fd5b634e487b7160e01b600052602160045260246000fdfea26469706673582212203b4ffd3fbdd3a3cb1fd38bd627daf41d597cee9b7bc2e196f9ce9b47937f765564736f6c63430008180033",
  "linkReferences": {},
  "deployedLinkReferences": {}
}